:100000000C948B000C94B3000C94B3000C94B300CC
:100010000C94A61A0C94B3000C94B3000C94B7186B
:100020000C94B3000C94B3000C94B3000C94B30084
:100030000C94B3000C94B3000C94B3000C94B30074
:100040000C94D3190C94B3000C94B3000C94B3002B
:100050000C94B3000C94B3000C94B3000C94B30054
:100060000C94FE1A0C94B3004F22342637263A26FD
:1000700050264D26502653263128342837284F281D
:100080006F2899289822982298229822B328B62877
:10009000B928BC28CE28D128312934293A293D292C
:1000A00040294329EC27EC27EC27EC27462949294E
:1000B0004C294F295229552900000000240027000F
:1000C0002A0000000000230026002900000000088C
:1000D000000201000003040700000000000000000F
:1000E00001020408102040800102040810200102CF
:1000F0000408102000000000250028002B00040444
:1001000004040404040402020202020203030303BF
:1001100003030200662A11241FBECFEFD8E0DEBF22
:10012000CDBF14E0A0E0B1E0E4E7F8E502C005903F
:100130000D92AA31B107D9F725E0AAE1B4E001C0D8
:100140001D92A43DB207E1F710E0CBE8D0E004C077
:100150002197FE010E94E72BCA38D107C9F70E94F8
:1001600079200C94382C0C9400009091AE054091AD
:100170007E0450917F04609180047091810480918D
:10018000AF059923F9F01092AE0540937404509393
:1001900075046093760470937704409178045091CD
:1001A000790460917A0470917B0440937E045093AB
:1001B0007F046093800470938104811124C0809136
:1001C000AC051FC091E09093AE0540937804509326
:1001D000790460937A0470937B0440917404509185
:1001E0007504609176047091770440937E04509377
:1001F0007F046093800470938104811104C0809116
:10020000AD0580938A040E946D1680919704811138
:100210000DC080918A04823048F08091A2059091AF
:10022000A30590934F0480934E0404C010924F0492
:1002300010924E040C94500EBF92CF92DF92EF9228
:10024000FF920F931F93CF93DF931F92CDB7DEB72B
:100250008C01B12C6B01770FEE08FF08B41691F0FA
:10026000C80149830E94E31DC701B6010E948D1990
:1002700085E00E948C18C701B6010E948D19B394C5
:100280004981ECCF0F90DF91CF911F910F91FF909B
:10029000EF90DF90CF90BF900895EF92FF920F9371
:1002A0001F93CF93C82F8B0121E18202C00111243B
:1002B0009C01265E3B4F7901B901C8010E94182CB0
:1002C000892BE9F1EC2FC43008F0E3E080918B0535
:1002D000E81710F0EFEFE80FF0E0E858FA4F648904
:1002E000606888E795E00E94A31A0115110569F07E
:1002F000F80101900020E9F73197AF01401B510B45
:10030000B80188E795E00E94FC16B801C7010E9479
:10031000212CF80101900020E9F73197CE2FC01B66
:10032000C03168F4E0917805F09179050190F08191
:10033000E02D60E288E795E00995CF5FF1CFCF919E
:100340001F910F91FF90EF9008954F925F926F92DF
:100350007F928F929F92AF92BF92CF92DF92EF9255
:10036000FF9281E10E943318892B19F481E0809378
:10037000450480914504882351F081E10E9433189F
:10038000892B29F080919E05823308F48AC084E08D
:100390000E943318892B19F481E0809344048091E2
:1003A0004404882351F084E00E943318892B29F0FB
:1003B00080919E05823008F07AC08091BA05833022
:1003C00010F18091C405882329F08091C405811122
:1003D0000BC073C0E0910501F091060180810E947D
:1003E0003318892B31F0F1CF8091B104882309F4BF
:1003F00064C00E94C71960938F0470939004809327
:1004000091049093920420919E0530E040E050E0EA
:1004100060EB74E080E090E00E94A22B69017A0119
:100420004090400450904104609042047090430416
:10043000411451046104710409F06BC10E94C71991
:100440008090930490909404A0909504B0909604AA
:10045000DC01CB0188199909AA09BB098C159D05F6
:10046000AE05BF0598F10E94C71980908F04909047
:100470009004A0909104B09092049B01AC012819C3
:1004800039094A095B0949015A01A3E0B0E0A70113
:1004900096010E948F2B86169706A806B906B0F023
:1004A00038C1109245048F5F80939E0570CF1092E3
:1004B0004404815080939E0580CF10928F04109247
:1004C000900410929104109292049DCF61E086E016
:1004D0000E945C188091A2059091A3050E94E31DE3
:1004E00081E080933F048091B2049091B304A09185
:1004F000B404B091B504892B8A2B8B2B09F07EC0F4
:100500008091400490914104A0914204B091430431
:10051000892B8A2B8B2B09F04CC00E94C719809025
:10052000930490909404A0909504B0909604DC01FC
:10053000CB0188199909AA09BB098C159D05AE053F
:10054000BF05C8F48091C405882329F08091C405B3
:1005500081110CC010C0E0910201F0910301808173
:100560000E943318892B09F0E1C1F0CF8091B604C5
:10057000882309F4DBC10E94C71980908F049090F2
:100580009004A0909104B09092049B01AC012819B2
:1005900039094A095B0949015A01A3E0B0E0A70102
:1005A00096010E948F2B86169706A806B90630F58D
:1005B0000EC08091C405811109C2E0910201F09141
:1005C000030180810E943318892B09F4FFC18091B7
:1005D000C40581110AC0E0910501F09106018081F6
:1005E0000E943318892B09F0ACC18091C40588237F
:1005F00029F08091B104882309F4A3C12091C40596
:100600008091B2049091B304A091B404B091B50468
:10061000211124C0892B8A2B8B2B09F49DC10E94A8
:10062000C719C090B204D090B304E090B404F09025
:10063000B504DC01CB018C199D09AE09BF090697F1
:10064000A105B10508F488C1E0910201F091030110
:1006500080810E943318892B49F07EC1892B8A2B17
:100660008B2B99F08091B604882331F081E0809340
:100670003E0410923D0409C08091B104882329F002
:1006800081E080933D0410923E0480918B04882386
:10069000E9F080919E054AE064E674E090E00E94F3
:1006A000F42A62E471E083E594E00E94212C64E680
:1006B00074E083E594E00E940D2C6CE471E083E526
:1006C00094E00E940D2C63E574E014C080918C04CA
:1006D000882319F061E571E00DC080918E048A30A5
:1006E0001CF060E671E006C010926F0410926E0478
:1006F00063EB73E081E0FF90EF90DF90CF90BF90CD
:10070000AF909F908F907F906F905F904F900C94E0
:100710004D0160E086E00E945C1885E00E948C1824
:1007200045284628472851F40E94C7196093400481
:100730007093410480934204909343040E94C7192C
:100740008090400490904104A0904204B0904304F3
:100750002B013C01481859086A087B08A091040144
:10076000B0E0A70196010E948F2B641575058605E0
:10077000970508F0B8CE409193045091940460918D
:1007800095047091960480918F0490919004A091AB
:100790009104B0919204481759076A077B07E0F467
:1007A00080913E04811144C08091C405882329F0C2
:1007B0008091C40581110BC04BC0E0910201F09102
:1007C000030180810E943318892B91F1F1CF909120
:1007D000B60491112DC03CC080913D04811151C0DF
:1007E0008091C405882329F08091C40581110CC033
:1007F0000FC0E0910501F091060180810E9433183D
:10080000892B09F43EC0F0CF9091B104911139C009
:1008100090913E0491110CC0811157C0E0910201EA
:10082000F091030180810E943318892B09F04DC09B
:100830000E94C71960939304709394048093950465
:100840009093960481E080938B0410923E0428C01C
:1008500090913D04911115C0882329F08091C40521
:1008600081110BC03AC0E0910501F0910601808131
:100870000E943318892B91F704C08091B10488231A
:1008800061F10E94C71960938F0470939004809364
:1008900091049093920481E080938B0410923D0424
:1008A00080933F048093040110924004109241040D
:1008B00010924204109243041092B2041092B304B6
:1008C0001092B4041092B5040ECE8091C405882312
:1008D00021F08091B6048111ABCF8091C3058823AC
:1008E00019F083E08093040181E080938B0480936E
:1008F0003F040E94C7199B01AC01281939094A0914
:100900005B0949015A01A0910401B0E0A7019601D9
:100910000E948F2B681579058A059B0508F0E3CDA9
:1009200010928B0410923F0481E0BCCF0E94C71943
:100930006093B2047093B3048093B4049093B504AD
:100940001ACE0E94C7196093B2047093B3048093C7
:10095000B4049093B50452CE809140049091410428
:10096000A0914204B0914304892B8A2B8B2B09F46C
:100970008CCE8091B2049091B304A091B404B09154
:10098000B504892B8A2B8B2B09F47FCE0E94C719C3
:10099000C090B204D090B304E090B404F090B504D9
:1009A000DC01CB018C199D09AE09BF094097A10557
:1009B000B10508F46ACEE0910501F091060180814D
:1009C0000E943318892B09F45BCE5FCE8091C40559
:1009D000882309F413CE8091B60481110FCEF7CD90
:1009E0000F931F93CF93DF9381E1E3E5F4E0DF0101
:1009F0001D928A95E9F78AE0E4E6F4E0DF011D92B2
:100A00008A95E9F720918C0480917E0490917F046F
:100A1000A0918004B0918104211106C02091980416
:100A2000273011F02130B1F4009184041091850435
:100A3000012E000C220B330BBC01CD01600F711F86
:100A4000821F931F2AE044E654E00E940E2B64EBC1
:100A500073E014C0BC01CD016E5C7F4F8F4F9F4F80
:100A60002AE044E654E00E940E2B8091AE058111ED
:100A700003C061E771E002C064E771E083E594E0E0
:100A80000E94212CE4E6F4E001900020E9F7319780
:100A9000E456F440EF01DD278E0106501109A8014C
:100AA00064E674E083E594E00E94282C65E173E03D
:100AB00083E594E00E940D2CB8016C597B4F43E014
:100AC00050E083E594E00E94282C65E173E083E523
:100AD00094E00E940D2C80918C04BE01635071093A
:100AE000811106C080919804873011F0813029F47B
:100AF0006C597B4F43E050E004C06C597B4F41E0A0
:100B000050E083E594E00E94282C80918A04813093
:100B100059F038F0823059F0833079F466E871E0AA
:100B200008C067E771E005C06CE771E002C061E8EA
:100B300071E083E594E00E940D2C80919704882356
:100B400019F06BE871E006C08091AF05882331F0A1
:100B50006FE871E083E594E00E940D2C109263042D
:100B600063E574E080E0DF91CF911F910F910C94C9
:100B70004D0190918D0481E0892780938D0481112E
:100B800008C010926F0410926E04109271041092BB
:100B900070040E94500E81E0809317018091AF0590
:100BA00081111092AF050C94F004CF93C62F91E001
:100BB0009093410590E69093630510924205109240
:100BC0006405682F8CE695E00E94FE176C2F8CE67A
:100BD00095E00E94FE17CF910C94ED1F8F929F928B
:100BE000AF92BF92CF92DF92EF92FF921F93CF937B
:100BF000DF93CDB7DEB728970FB6F894DEBF0FBEF0
:100C0000CDBF182F6A017B01DB01CA018052914AD6
:100C1000A740B10981329449A747B64050F081E01E
:100C200090E001C0880F1A95EAF790910801892B8E
:100C300071C060910C0170910D0180910E01909135
:100C40000F01A70196010E94A22B4601570188249B
:100C50009924E0EFAE2289288A288B2849F09695BE
:100C6000879577956795F694E794D794C794EDCFD9
:100C7000E7E0660F771F881F991FEA95D1F74901B2
:100C80005A01F7E0880C991CAA1CBB1CFA95D1F7F5
:100C900022E0921AA108B108A70196010E94A22B96
:100CA000820E931EA41EB51ED982CA82AB829C827C
:100CB0008D82CC24DD24EFE0EE22FF24A4E0CC0CD6
:100CC000DD1CEE1CFF1CAA95D1F7C62AD72AE82AFC
:100CD000F92AEE827F836887812F880F880F880F1B
:100CE000BE016F5F7F4F865D0E944A20E12FF0E0DA
:100CF000E75FFE4F60816C6080E1810F0E94D50547
:100D000081E090E001C0880F1A95EAF780959091F4
:100D100008018923809308016091080183E00E9403
:100D2000D50528960FB6F894DEBF0FBECDBFDF9174
:100D3000CF911F91FF90EF90DF90CF90BF90AF9039
:100D40009F908F900895CF92DF92EF92FF928091C3
:100D50003F0481113FC08091C405882329F0809110
:100D6000C405811107C00AC08FE00E943318892B87
:100D7000D1F0F5CF9091B604911115C09091BA05BC
:100D8000992341F1882329F08091C405811107C07E
:100D900021C080E10E943318892B29F0F5CF809182
:100DA000B1048823B9F081E080933F0480919F05CE
:100DB000882339F080918A04826080938A040E949B
:100DC0006D168091BA058111A0C080919704882387
:100DD00009F4F2C080913F04882349F10E94C719A9
:100DE0002091B8053091B905DC01CB01820F931F2A
:100DF000A11DB11D8093860490938704A09388045D
:100E0000B09389048091C405882329F08091C4059A
:100E1000811108C00CC08FE00E943318892B09F0A3
:100E200042C1F4CF8091B604882309F43CC180917B
:100E30008B0481113FC0C0908604D0908704E0905D
:100E40008804F0908904C114D104E104F10491F103
:100E500080919704882371F10E94C719C616D7069E
:100E6000E806F90638F580919F05882319F110925C
:100E700097041092860410928704109288041092AE
:100E800089048091A2059091A30590934F048093CB
:100E90004E040E94500E8091AF0581110E94B50052
:100EA00060E087E00E945C186AE070E080E090E01B
:100EB0000E948D198091BA0581110CC180913F0467
:100EC000882391F080918A0481FF0EC061E086E062
:100ED0000E945C188091A2059091A305FF90EF906D
:100EE000DF90CF900C94E31D84E00E9433180197AB
:100EF00009F0F0C060E086E00E945C1885E0FF9099
:100F0000EF90DF90CF900C948C1890918A0491FF11
:100F10005CCF91E090938B041092B2041092B304D2
:100F20001092B4041092B50480FF09C081E091E0F2
:100F3000909306018093050180E091E008C080E075
:100F400091E0909306018093050181E091E09093F8
:100F50000301809302018091C405882329F08091C8
:100F6000C40581110CC00FC0E0910201F091030192
:100F700080810E943318892B09F47FC0F0CF8091C3
:100F8000B60481117AC08091C405882329F080912C
:100F9000C40581110CC019CFE0910501F091060143
:100FA00080810E943318892B09F472C0F0CF8091A0
:100FB000B10481116DC009CF80919F05882309F488
:100FC00009CF40E050E0BA0182E00E94EE0561E006
:100FD00087E00E945C1881E0809397049091AE05B1
:100FE00080918A04911103C08093AC0502C0809364
:100FF000AD0510926F0410926E041092710410925D
:10100000700410924F0410924E0461E470E080E08E
:1010100090E00E948D198091AF05882319F00E94FD
:10102000B50002C00E94500E8091930490919404E8
:10103000A0919504B0919604885B9F4FAF4FBF4F2E
:101040008093930490939404A0939504B093960492
:1010500080918F0490919004A0919104B09192049A
:10106000885B9F4FAF4FBF4F80938F049093900446
:10107000A0939104B0939204ADCE0E94C7196093DF
:1010800093047093940480939504909396047BCF7B
:101090000E94C71960938F04709390048093910409
:1010A0009093920492CE10923F040E94C71920910F
:1010B000B8053091B905DC01CB01820F931FA11D4A
:1010C000B11D8093860490938704A0938804B09305
:1010D0008904ADCEFF90EF90DF90CF90089580917E
:1010E000860490918704A0918804B0918904892B8B
:1010F0008A2B8B2B21F080919F05811164C08EE09B
:101100000E943318892B99F18091970481112FC087
:1011100040E050E0BA0182E00E94EE0581E0809359
:10112000970410926F0410926E0410927104109242
:10113000700410924F0410924E0480919F058823F2
:1011400039F080918A048D7F80938A040E946D1605
:1011500061E470E080E090E00E948D190E94500EE2
:101160000E94F0048091AF0581110E94B5008EE0CD
:101170000E943318892B39F580919704811101C0A1
:10118000089562E370E080E090E00E948D198EE0A7
:101190000E943318892BB9F4109297040E94F0042E
:1011A0008091AF0581110E94B50080918A0481FF72
:1011B0000AC08091A2059091A30590934F0480935B
:1011C0004E040C94500E0895CF92DF92EF92FF924E
:1011D0000F931F93CF93DF935091C50540918A04DD
:1011E000C0907E04D0907F04E0908004F090810451
:1011F0008091AD049091AE04A091AF04B091B00481
:10120000E0917004F0917104209184043091850480
:10121000C0914E04D0914F045523B1F18C0D9D1D0A
:10122000AE1DBF1D40FF17C0AF01FF0F660B770B50
:10123000840F951FA61FB71F8901330F220B330B95
:10124000AC01BD01400F511F621F731FCE01DD0FA6
:10125000AA0BBB0B42C0AE01DD0F660B770B480F2C
:10126000591F6A1F7B1F6F01FF0FEE08FF084C0D0F
:101270005D1D6E1D7F1D8901330F220B330B400F47
:10128000511F621F731F2DC040FF0DC0AE01DD0F47
:10129000660B770B4C195D096E097F09480F591FC2
:1012A0006A1F7B1F0EC0AC01BD014C195D096E09A0
:1012B0007F09CE01DD0FAA0BBB0B481B590B6A0B34
:1012C0007B0BCF01FF0FAA0BBB0B481B590B6A0B03
:1012D0007B0BC901330FAA0BBB0B481B590B6A0BC5
:1012E0007B0B82E00E94EE05DF91CF911F910F9161
:1012F000FF90EF90DF90CF900C94F0040F931F932A
:10130000CF93DF9385E10E946519EC01809117016D
:10131000882309F4ACC080915004833009F456C08E
:1013200050F48130C1F0823009F0A1C08091910564
:101330009091920592C0853009F46FC008F455C0B1
:10134000863009F094C083E080938A0480919B05E5
:1013500090919C0569C08091C50580933C041092D2
:10136000C50510924F0410924E0410928A044091C9
:101370009305509194056091950570919605409361
:10138000AD045093AE046093AF047093B00480E05A
:101390000E94EE051092AE0580917E0490917F042C
:1013A000A0918004B0918104809378049093790493
:1013B000A0937A04B0937B04D0938304C0938204F7
:1013C00063E971E081E00E944D0151C08091930575
:1013D00090919405A0919505B09196059093730412
:1013E00080937204805596413CC082E080938A04C9
:1013F0008091930590919405A0919505B0919605E3
:101400008093AD049093AE04A093AF04B093B00466
:101410008091990590919A0520C081E080938A047B
:1014200080919705909198058C01092E000C220B54
:10143000330B4091930550919405609195057091FF
:101440009605400F511F621F731F4093AD045093C8
:10145000AE046093AF047093B004909373048093D0
:1014600072048C1B9D0B9093830480938204809163
:101470005004833009F44FC028F4813061F0823089
:1014800009F115C1853009F4B8C008F48FC0863061
:1014900009F4DAC00CC1C530D1052CF48091820466
:1014A00090918304CFC0CD3F43E0D4070CF4FFC03C
:1014B00080918204909183040A979093830480938F
:1014C0008204F5C080918204909183049E01280FCC
:1014D000391F213167E2360714F020E137E2203F5F
:1014E00048ED340714F420EF38ED30939205209343
:1014F0009105C530D1052CF4203F384D09F4D7C0F3
:10150000DBCFCD3F43E0D4070CF4D1C020313742CC
:1015100009F4CDC097C02091820430918304C901A1
:10152000032E000CAA0BBB0B805B994EA844BF4F47
:10153000AE010D2E000C660B770B840F951FA61FB6
:10154000B71F8C3341E1940747EBA407B10560F066
:1015500081306BE1960767EBA607B10548F080E0A4
:101560009BE1A7EBB0E004C08CE391E1A7EBB0E016
:101570008093AD049093AE04A093AF04B093B004F5
:10158000C530D1053CF48C339141A74BB10509F42A
:101590008EC07BC0CD3F63E0D6070CF488C08115B8
:1015A0009B41A74BB10509F482C07BC080918204A6
:1015B000909183049E01280F391F1216130614F40C
:1015C00020E030E022316DEF360714F422E13DEFE8
:1015D00030939A0520939905C530D1052CF422311A
:1015E0003D4F09F464C068CFCD3F63E0D6070CF4EB
:1015F0005EC0232B09F45BC025C0809182049091CA
:1016000083049E01280F391F2F314BEF340714F04C
:101610002EE13BEF243562EF360714F424E532EF78
:101620003093980520939705C530D10524F42435CF
:10163000324FE9F141CFCD3F63E0D607C4F12E31FF
:101640003B4FA9F10A9639CF20918204309183044F
:10165000CE01820F931F40919705509198058417F2
:10166000950744F0BA0162517D4F681779071CF461
:10167000CB0101C0CA0190939C0580939B05C530A6
:10168000D10534F44817590794F42A5031090BC096
:10169000CD3F63E0D6075CF043515D4F48175907D3
:1016A00034F0265F3F4F309383042093820481E11E
:1016B0000E94331820915004892B09F06CC023300C
:1016C00009F440C030F4213061F1223009F44AC0FD
:1016D00059C0253009F446C008F44CC0263009F042
:1016E00051C060E086E00E945C1885E00E948C1882
:1016F0001092980480913C048093C50510928A044E
:101700000E946D1642E062E370E088E592E00E947C
:101710001C0160E671E081E00E944D010E94500EC4
:1017200031C080917E0490917F04A0918004B0919B
:1017300081048093780490937904A0937A04B09301
:101740007B0410C08091AD049091AE04A091AF04D1
:10175000B091B0048093930590939405A093950560
:10176000B093960541E062E370E088E592E00E9464
:101770001C0108C060E086E00E945C1885E00E94C1
:101780008C18F0CF809150048F5F8093500481E0DB
:101790008093170146C181E080939804109217014D
:1017A000243009F4A0C008F06BC0213009F472C0E5
:1017B000223009F0F1C0A0919105B091920524E684
:1017C00030E00E94ED2BDC01CB0180549F48A84DF6
:1017D000BB4C80930C0190930D01A0930E01B0932C
:1017E0000F0140919305509194056091950570917A
:1017F000960580917E0490917F04A0918004B09121
:101800008104481B590B6A0B7B0B82E00E94EE059A
:1018100040919305509194056091950570919605BE
:1018200080E00E94EE05A0919105B091920524E61A
:1018300030E00E94ED2B2BE633E040E050E00E94C8
:10184000702BCA01B9012AE044E654E00E94FF2A45
:1018500063EA71E083E594E00E94212C64E674E081
:1018600083E594E00E940D2C6CEA71E083E594E03E
:101870000E940D2C63E574E081E00E944D018CC054
:101880002530B1F1263009F087C080919B059091F9
:101890009C054BC04091820450918304052E000C9E
:1018A000660B770B8091780490917904A0917A046B
:1018B000B0917B04841B950BA60BB70BAE01DD0F1B
:1018C000660B770B840F951FA61FB71F80937E04AE
:1018D00090937F04A0938004B09381040E94E40855
:1018E0000E94F00459C08091990590919A051DC0FD
:1018F0008091970590919805092E000CAA0BBB0BBF
:1019000040919305509194056091950570919605CD
:10191000840F951FA61FB71F8093AD049093AE044C
:10192000A093AF04B093B00437C0092E000CAA0BEB
:10193000BB0B409193055091940560919505709172
:101940009605840F951FA61FB71F8093AD04909333
:10195000AE04A093AF04B093B0048091C40581118C
:101960000E941A0D8EE00E943318892B71F08FE0CF
:101970000E943318892B09F449C08091C40588233B
:1019800021F08091B604811141C060E086E00E94A0
:101990005C1885E00E948C1880915004833008F414
:1019A00040C04091AD045091AE046091AF0470917D
:1019B000B00480E00E94EE050E94E4086091AD044E
:1019C0007091AE048091AF049091B0042AE044E697
:1019D00054E00E940E2B61EB71E083E594E00E94DD
:1019E000212C64E674E083E594E00E940D2C66EB04
:1019F00071E083E594E00E940D2C63E574E081E0E2
:101A0000DF91CF911F910F910C944D0161E086E021
:101A10000E945C188091A2059091A3050E94E31D8D
:101A2000BBCFDF91CF911F910F91089581E08093FB
:101A3000B70408950F931F9360E082E00E945C1842
:101A40008091C90490E049962091C405821B9109B8
:101A50000E9482198FE00E943318892B21F10E9485
:101A6000C7196093C4047093C5048093C60490930F
:101A7000C7048091B604811139C00E94C719009132
:101A8000C0041091C1042091C2043091C304DC0150
:101A9000CB01801B910BA20BB30B0297A105B105E3
:101AA00008F09FC023C00E94C7196093C0047093C0
:101AB000C1048093C2049093C3048091B604882328
:101AC000A9F00E94C7190091C4041091C504209187
:101AD000C6043091C704DC01CB01801B910BA20B23
:101AE000B30B0B97A105B10508F087C061E082E058
:101AF0000E945C1883EC90E00197F1F760E082E0CF
:101B00000E945C188091C80490E049962091C40519
:101B1000821B91090E94821980E10E943318892B4F
:101B200021F10E94C7196093BC047093BD04809397
:101B3000BE049093BF048091B104811138C00E940B
:101B4000C7190091B8041091B9042091BA043091DA
:101B5000BB04DC01CB01801B910BA20BB30B0297E2
:101B6000A105B10508F04CC022C00E94C7196093BE
:101B7000B8047093B9048093BA049093BB04809125
:101B8000B1048823A1F00E94C7190091BC041091F0
:101B9000BD042091BE043091BF04DC01CB01801B49
:101BA000910BA20BB30B0B97A105B105A8F561E052
:101BB00082E00E945C1883EC90E00197F1F780913D
:101BC000BA05823011F0843051F59091B1048091C2
:101BD000B604892798279093B10489278093B60487
:101BE0001EC081E08093B6041092B2041092B30438
:101BF0001092B4041092B50479CF1092B60476CF47
:101C000081E08093B1041092B2041092B304109258
:101C1000B4041092B504CBCF1092B104C8CF1F9179
:101C20000F910895CF92DF92EF92FF92CF93C4E687
:101C3000C12CD12C76018091B704882339F0109201
:101C4000B70480917C0490917D0424C085E10E94BA
:101C50006519092E000CAA0BBB0BC80ED91EEA1E73
:101C6000FB1EC15041F7C701B6016B5F7F4F8F4F1D
:101C70009F4F2AE030E040E050E00E94A22BA0E11C
:101C8000B7E20E948F2B26EF37E240E050E00E943F
:101C9000A22BC901CF91FF90EF90DF90CF900895D4
:101CA0000E94E4080E94120E2091A0053091A10527
:101CB000DC010E94ED2B2AE030E040E050E00E9481
:101CC000A22B80917E0490917F04A0918004B0911A
:101CD0008104821B930BA40BB50B8093130190938B
:101CE0001401A0931501B09316010895CF92DF92CD
:101CF000EF92FF920E94120E20917C0430917D049D
:101D0000821B930B97FF03C09195819591090997C9
:101D100014F58EE00E943318892BE9F481E10E94CA
:101D20003318892BC1F08091C405882329F0809154
:101D3000C405811107C00AC08FE00E943318892BA7
:101D400051F0F5CF8091B604811105C084E00E9466
:101D50003318892BB1F410928604109287041092E4
:101D6000880410928904109298040E94500E60E931
:101D700071E080E090E0FF90EF90DF90CF900C94C6
:101D80008D19C0908604D0908704E0908804F0906C
:101D900089040E94C719C616D706E806F90608F096
:101DA00050C0809198048430B1F58091B405909131
:101DB000B505C0907E04D0907F04E0908004F09040
:101DC0008104C80ED91EE11CF11CC0927E04D09281
:101DD0007F04E0928004F09281042091B20530915A
:101DE000B305A8EEB3E00E94C42B6C157D058E05EB
:101DF0009F0570F42091B0053091B1050E94C42B6D
:101E000060937E0470937F04809380049093810498
:101E10000E94E40802C00E94B5000E94C7192091E8
:101E2000B6053091B705DC01CB01820F931FA11DD0
:101E3000B11D8093860490938704A0938804B09387
:101E40008904FF90EF90DF90CF9008954F925F92BA
:101E50006F927F928F929F92AF92BF92CF92DF92BA
:101E6000EF92FF920F931F93CF93DF9385E10E9430
:101E70006519EC019091170180915004992309F4A0
:101E80009BC0823009F44AC018F4813009F194C033
:101E9000833009F477C0843009F08EC02091B605F4
:101EA0003091B7053093730420937204CE0167EE2E
:101EB0007FEF0E94D32B42E3469FC001479F900DC6
:101EC0001124820F931F909383048093820490C106
:101ED0002091B0053091B1053093730420937204C2
:101EE000CE01D7FD0196959587958901081B190BA1
:101EF0006091BB057091BC058091BD059091BE05B8
:101F000028EE33E040E050E00E94A22BC801821B83
:101F1000930B90938304809382045CC00091B2057C
:101F20001091B3051093730400937204C090B00530
:101F3000D090B105E12CF12C6091BF057091C005E6
:101F40008091C1059091C20528EE33E040E050E059
:101F50000E94A22B2C193D094E095F09DE010E9447
:101F60009A2B20E034E040E050E00E94702BC20E3B
:101F7000D31EE41EF51E0C191D0910938304009353
:101F80008204A0C02091B4053091B505309373044C
:101F900020937204CE016BEF7FEF0E94D32B42E3BC
:101FA000469FC001479F900D1124820F931F90936D
:101FB000830480938204EEC0823009F483C018F455
:101FC000813041F049C1833009F4E4C0843009F420
:101FD0000FC142C10091820410918304AE01D7FF6A
:101FE00002C04F5F5F4F55954795485A544E400F7A
:101FF000511F6A01550FEE08FF086091BB057091F3
:10200000BC058091BD059091BE0528EE422E23E0CF
:10201000522E612C712CA30192010E94A22B490126
:102020005A01C216D306E406F50610F4A90116C03B
:102030006091BF057091C0058091C1059091C20566
:10204000A30192010E94A22BD701C6012C153D05C8
:102050004E055F0510F4DA01C901AC015093B105DA
:102060004093B005C530D1055CF460E070E08416A3
:102070009506A606B70608F0EFC0015011091DC06D
:10208000CD3FD3400CF4E8C06A01E12CF12C609103
:10209000BF057091C0058091C1059091C20528EEE1
:1020A00033E040E050E00E94A22BC216D306E406C3
:1020B000F50608F0D1C00F5F1F4F10938304009303
:1020C0008204CAC06091BF057091C0058091C105AE
:1020D0009091C20528EE33E040E050E00E94A22B30
:1020E00069017A010091B0051091B1054801A12C58
:1020F000B12C281939094A095B09DE010E949A2B83
:1021000020E034E040E050E00E94702BBA01A901C9
:10211000480D591D6A1D7B1D809182049091830496
:102120002C01092E000C66087708440E551E661E09
:10213000771E481459046A047B045CF0C414D50467
:10214000E604F70410F4960105C09C01240F351F26
:1021500001C098013093B3052093B205C530D10575
:1021600034F40217130708F077C001970EC0CD3F73
:10217000D3400CF471C0A90160E070E04C155D051E
:102180006E057F0508F068C00196909383048093E4
:10219000820462C02091820430918304CE0165E004
:1021A00070E00E94D32B42E3469FC001479F900DF1
:1021B0001124820F931F823391053CF0813147E255
:1021C00094072CF080E197E202C082E390E09093C4
:1021D000B5058093B405C530D1051CF4C297E1F173
:1021E0002CC0CD3FD340C4F180319742A9F12EC01D
:1021F0002091820430918304CE0169E170E00E9455
:10220000D32B42E3469FC001479F900D1124820FBC
:10221000931F97FD07C0813D47E094072CF080EDA8
:1022200097E002C080E090E09093B7058093B605F8
:10223000C530D1052CF4892B79F02253310908C01F
:10224000CD3FD3404CF0803D974031F02E5C3F4F66
:10225000309383042093820481E10E9433182091FB
:102260005004892BB9F52130E0F0243098F0243067
:10227000C1F41092980442E062E370E088E592E0D5
:102280000E941C0160E671E081E00E944D010E9405
:10229000500E07C041E062E370E088E592E00E94E2
:1022A0001C01809150048F5F8093500481E08093E3
:1022B0001701DF91CF911F910F91FF90EF90DF9069
:1022C000CF90BF90AF909F908F907F906F905F90D6
:1022D0004F90089585E08093980410921701223062
:1022E00069F178F4213009F05CC04AE064E674E0FA
:1022F0008091B0059091B1050E94F42A62E373E0E9
:1023000028C0233099F1243009F04BC04AE064E63C
:1023100074E08091B6059091B7050E94F42A69EBAC
:1023200073E083E594E00E94212C64E674E083E589
:1023300094E00E940D2C6BE473E02FC04AE064E649
:1023400074E08091B2059091B3050E94F42A6EE387
:1023500073E083E594E00E94212C64E674E083E559
:1023600094E00E940D2C69E373E017C04AE064E634
:1023700074E08091B4059091B5050E94F42A65E45B
:1023800073E083E594E00E94212C64E674E083E529
:1023900094E00E940D2C66EB71E083E594E00E94CE
:1023A0000D2C63E574E081E0DF91CF911F910F91D7
:1023B000FF90EF90DF90CF90BF90AF909F908F9065
:1023C0007F906F905F904F900C944D01EF92FF9231
:1023D0000F931F93CF93DF9385E10E946519EC0162
:1023E00080911701882309F456C0809150048330EE
:1023F00051F140F48130E9F0823009F04CC0809115
:10240000C30523C0853071F150F1863009F043C017
:102410008091A2059091A30590934F0480934E0460
:1024200090937304809372048C1B9D0B885C9109BC
:102430002EC080918A04826080938A040E94F004F6
:102440008091BA0502C08091C40590E09093730416
:1024500080937204D0938304C09382041CC0809143
:102460009F05F3CF2091B8053091B90530937304DF
:1024700020937204CE0166EF7FEF0E94D32B4AE0D7
:10248000469FC001479F900D1124820F931F909388
:1024900083048093820480915004833009F442C005
:1024A000D0F4813009F1823009F0F1C080918204CA
:1024B00090918304C81BD90B2496C6FBEE24E0F848
:1024C000F12C80917204909173048E0D9F1D817088
:1024D0008093C305DCC0853009F47DC008F466C074
:1024E000863009F4A6C0D3C0809182049091830401
:1024F0009E01281B390BC90104964091720450912A
:1025000073046AE1649F9001659F300D1124820F6E
:10251000931F8F7799276AE170E00E94D32B609315
:10252000BA05B5C02091820430918304CE01821B8C
:10253000930B68E270E00E94D32B8091720490911B
:102540007304680F791F77FD06C06A31710524F0A6
:1025500069E170E001C060E06093C405C530D10559
:102560007CF4611106C062E08FE00E94291962E0EC
:1025700019C0265F3F4F30938304209382040DC01F
:10258000CD3FD34044F0693141F02A5031093093B6
:10259000830420938204662331F360E08FE00E947D
:1025A000291960E080E10E94291971C0809182049C
:1025B00090918304C81BD90B2496C6FB002700F911
:1025C00010E08091720490917304080F191F01703C
:1025D00000939F055CC02091820430918304CE015A
:1025E0006AE070E00E94D32B4AE0469FC001479FFB
:1025F000900D1124820F931F8A3091053CF0893E83
:1026000043E094072CF088EE93E002C08AE090E06B
:102610009093B9058093B805C530D1051CF4449753
:10262000B0F126C0CD3FD34094F1883E934079F17C
:1026300028C02091820430918304CE0188539F4F9B
:10264000820F931F883C91053CF0813B44E0940746
:102650002CF080EB94E002C088EC90E09093A3050E
:102660008093A205C530D10534F4883C910579F0FA
:102670002A50310908C0CD3FD3404CF0803B9440F4
:1026800031F0265F3F4F309383042093820481E131
:102690000E94331820915004892B09F095C02330F3
:1026A00009F450C028F42130E1F02230B1F17DC0AE
:1026B000253009F46DC008F45EC0263009F075C0FD
:1026C0001092980442E062E370E088E592E00E9494
:1026D0001C0160E671E081E00E944D010E94500EF5
:1026E00064C041E062E370E088E592E00E941C0172
:1026F00068EC70E080E090E00E948D198091BA054E
:10270000811153C08091500491E0980F9093500430
:1027100090911801992359F148C041E062E370E0BB
:1027200088E592E00E941C0168EC70E080E090E097
:102730000E948D1980911801811137C08091500439
:102740008F5F16C00E942C1C41E062E370E088E5B8
:1027500092E00E941C0168EC70E080E090E00E9432
:102760008D1980911201811120C0809150048E5FDB
:10277000809350041AC080919F05811109C08AE09E
:1027800090E09093B9058093B80585E0809350045C
:1027900041E062E370E088E592E00E941C0168EC91
:1027A00070E080E090E00E948D19809150048F5F6E
:1027B0008093500481E080931701DF91CF911F91A6
:1027C0000F91FF90EF90089583E08093980410920A
:1027D0001701233009F463C070F4213061F1223015
:1027E00009F099C063E773E083E594E00E94212C2F
:1027F0008091C3054CC0253009F472C008F43FC075
:10280000263009F088C04AE064E674E08091A205B1
:102810009091A3050E94F42A60EC73E083E594E0B4
:102820000E94212C64E674E083E594E00E940D2C64
:1028300066EB71E06CC06FE473E083E594E00E94A6
:10284000212C8091BA058230A1F040F4882371F0E8
:10285000813009F060C063E673E059C0833061F0F5
:10286000843009F058C06AE673E051C065E573E052
:102870004EC06EE573E04BC06FE673E048C06AEA95
:1028800073E083E594E00E94212C80919F058823CA
:1028900019F061EF71E03BC06CE873E038C08091E3
:1028A000C405811107C060E873E083E594E00E94ED
:1028B000212C31C060E973E080E00E944D018091DD
:1028C000C4054AE064E674E090E00E94F42A6DE9F1
:1028D00073E083E594E00E94212C64E674E017C065
:1028E0004AE064E674E08091B8059091B9050E94D1
:1028F000F42A65EB73E083E594E00E94212C64E602
:1029000074E083E594E00E940D2C6CE473E083E5B1
:1029100094E00E940D2C63E574E081E0DF91CF919B
:102920001F910F91FF90EF900C944D01CF92DF9289
:10293000EF92FF920F931F93CF93DF9385E10E9455
:102940006519EC0180911701109150048823D1F191
:10295000123069F01330F1F0113021F56091BB05B0
:102960007091BC058091BD059091BE0508C0609135
:10297000BF057091C0058091C1059091C20528EEF8
:1029800033E040E050E00E94A22B30937304209388
:10299000720408C08091A0059091A10590937304E2
:1029A00080937204CE01D7FD01969595879520916D
:1029B000720430917304A901481B590B509383048E
:1029C00040938204123009F43FC0133009F49AC0D6
:1029D000113009F0C6C02091820430918304CE01E9
:1029E000D7FD019695958795820F931F883E53E0FA
:1029F000950748F0813345E7940710F080E395E7A9
:102A0000A0E0B0E004C088EE93E0A0E0B0E08093E6
:102A1000BB059093BC05A093BD05B093BE05C53022
:102A2000D1053CF4883E9340A105B10509F499C055
:102A300089C0CD3FD3400CF494C080339547A105A5
:102A4000B10509F48EC087C00091820410918304FF
:102A5000CE01D7FD0196959587957C01E00EF11E7C
:102A6000C090A005D090A1056091BB057091BC05F8
:102A70008091BD059091BE0528EE33E040E050E026
:102A80000E94A22BBA01A9014C0D5D1D611D711D93
:102A9000C7010F2C000CAA0BBB0B84179507A607C8
:102AA000B70758F0C70121E3E21625E7F20610F058
:102AB00080E395E7A0E0B0E002C0DB01CA018093AB
:102AC000BF059093C005A093C105B093C205C53062
:102AD000D1054CF4481759076A077B0708F041C035
:102AE0000A5011090AC0CD3FD340DCF1803395472D
:102AF000A105B105B0F5065F1F4F10938304009345
:102B000082042FC02091820430918304CE01D7FD2E
:102B1000019695958795820F931F8A3091053CF019
:102B2000853F41E094072CF084EF91E002C08AE0F9
:102B300090E09093A1058093A005C530D1052CF4B9
:102B40000A9779F02A50310908C0CD3FD3404CF0A4
:102B5000843F914031F0265F3F4F309383042093B0
:102B6000820481E10E94331820915004892B09F0DE
:102B700057C02230D1F02330D1F1213009F047C0C5
:102B80002091BB053091BC054091BD055091BE051B
:102B9000A8EEB3E00E948F2B6093BB057093BC0539
:102BA0008093BD059093BE0514C02091BF05309160
:102BB000C0054091C1055091C205A8EEB3E00E9446
:102BC0008F2B6093BF057093C0058093C1059093D0
:102BD000C20541E062E370E088E592E00E941C01DA
:102BE00068EC70E080E090E00E948D1910C01092B7
:102BF000980442E062E370E088E592E00E941C01E4
:102C000060E671E081E00E944D010E94500E8091CB
:102C100050048F5F8093500481E08093170154C06B
:102C200082E080939804109217012230A9F023309B
:102C300019F1213009F048C06091BB057091BC05C5
:102C40008091BD059091BE052AE044E654E00E94C3
:102C50000E2B6AEC73E01BC06091BF057091C0053C
:102C60008091C1059091C2052AE044E654E00E949B
:102C70000E2B6FEC73E00BC04AE064E674E08091C9
:102C8000A0059091A1050E94F42A64ED73E083E50C
:102C900094E00E94212C64E674E083E594E00E94B5
:102CA0000D2C69E373E083E594E00E940D2C63E54D
:102CB00074E081E0DF91CF911F910F91FF90EF9031
:102CC000DF90CF900C944D01DF91CF911F910F9128
:102CD000FF90EF90DF90CF9008959091C50580917F
:102CE0008A04992349F0813079F0F8F0823009F4B0
:102CF00042C08330F9F067C08130B9F028F08230EB
:102D0000C9F08330C1F15FC0409151045091520429
:102D1000052E000C660B770B80919305909194051E
:102D2000A0919505B091960521C08091970590914D
:102D3000980525C08091990590919A05092E000C5F
:102D4000AA0BBB0B4091930550919405609195059A
:102D500070919605840F951FA61FB71F40915104CF
:102D600050915204052E000C660B770B841B950BBB
:102D7000A60BB70B20C080919B0590919C05AC01E0
:102D8000990F660B770B8091510490915204092E94
:102D9000000CAA0BBB0B840F951FA61FB71F4091F9
:102DA0009305509194056091950570919605840F57
:102DB000951FA61FB71F8093AD049093AE04A093F8
:102DC000AF04B093B0044091AD045091AE04609153
:102DD000AF047091B00480E00E94EE050E94E40808
:102DE0009091AE0580918A04911103C08093AC0547
:102DF00008958093AD050895CF92DF92EF92FF92F0
:102E00000F931F93CF93DF936C017A018B01C0E086
:102E1000D0E0CE15DF0589F0D8016D918D01D60186
:102E2000ED91FC910190F081E02DC6010995892B6F
:102E300011F47E0102C02196ECCFC701DF91CF9142
:102E40001F910F91FF90EF90DF90CF900895833006
:102E500081F028F4813099F08230A1F00895873014
:102E6000A9F08830B9F08430D1F4809180008F7D52
:102E700003C0809180008F7780938000089584B58F
:102E80008F7702C084B58F7D84BD08958091B00096
:102E90008F7703C08091B0008F7D8093B00008953C
:102EA0003FB7F8948091160590911705A0911805E9
:102EB000B091190526B5A89B05C02F3F19F00196C2
:102EC000A11DB11D3FBFBA2FA92F982F8827820FB0
:102ED000911DA11DB11DBC01CD0142E0660F771F00
:102EE000881F991F4A95D1F70895089585ED80931D
:102EF000BC008091BC0084FDFCCF10924005089579
:102F00004091EC04262F30E0240F311D2132310591
:102F1000DCF4209140052430C9F4FC0180E090E00D
:102F2000861758F43091EC042191DC01A653BB4F75
:102F3000A30FB11D2C930196F3CF8091EC04680F81
:102F40006093EC0480E0089581E0089582E00895A4
:102F5000089581E090E030914A04209149043217AD
:102F600010F480E090E09195819591090895809109
:102F70004A0490914904891730F48F5F80934A0482
:102F800080E090E008958FEF9FEF089580914904CD
:102F900090E020914A04821B91090895CF92DF921C
:102FA000EF92FF920F931F93CF93DF937C01262F15
:102FB000972F8A0180914105882391F0C62FD72F42
:102FC0006E01C40ED51ECC15DD0571F06991D701D7
:102FD000ED91FC910190F081E02DC7010995F3CFAF
:102FE000642F822F0E948017C801DF91CF911F911B
:102FF0000F91FF90EF90DF90CF900895CF93DF93E4
:103000001F92CDB7DEB76983209141052223D1F00D
:1030100020916405203240F021E030E0FC01338350
:10302000228380E090E015C080914205E82FF0E017
:10303000ED5BFA4F998190838F5F80934205809377
:10304000640505C061E0CE0101960E94801781E011
:1030500090E00F90DF91CF910895089580E090E087
:1030600008950E94082CCF93DF93282F30E0F901B8
:10307000E453FF4F8491F901E052FF4FD491F901DD
:10308000E250FF4FC491CC2391F081110E94271789
:10309000EC2FF0E0EE0FFF1FEE53FF4FA591B49120
:1030A000EC91ED2381E090E021F480E002C080E02B
:1030B00090E0DF91CF9108951F93CF93DF93282F56
:1030C00030E0F901E453FF4F8491F901E052FF4FE2
:1030D000D491F901E250FF4FC491CC23C9F0162FCF
:1030E00081110E942717EC2FF0E0EE0FFF1FEC502C
:1030F000FF4FA591B4918FB7F894111105C09C9121
:10310000ED2FE095E92302C0EC91ED2BEC938FBFFE
:10311000DF91CF911F91089590912301981324C0BE
:10312000E2E1F1E0E4919FEF90932301E130B9F007
:1031300098F0E230C9F4909170009D7F90937000F8
:1031400091E09093B0009091B100987F946090933B
:10315000B1001092B30008C010926E0005C09091AB
:103160006F009D7F90936F0060E00C945C181F923D
:103170000F920FB60F9211242F933F934F935F93AB
:103180006F937F938F939F93AF93BF93EF93FF932F
:103190008091680590916905A0916A05B0916B05D1
:1031A000892B8A2B8B2B51F180916505E091660567
:1031B000F0916705908189278083809168059091BF
:1031C0006905A0916A05B0916B05181619061A06D3
:1031D0001B06C4F48091680590916905A0916A0569
:1031E000B0916B050197A109B1098093680590938F
:1031F0006905A0936A05B0936B0504C08091230113
:103200000E948C18FF91EF91BF91AF919F918F9188
:103210007F916F915F914F913F912F910F900FBED2
:103220000F901F901895CF93DF93EC0160E08E8193
:103230000E945C1861E08E810E945C1860E08E81C3
:103240000E945C188BE891E00197F1F7DF91CF9134
:103250000895CF93DF9390E0FC01E052FF4F24915B
:10326000FC01E250FF4F8491882361F190E0880FC8
:10327000991FFC01E854FF4FC591D491FC01EC501B
:10328000FF4FA591B491611109C09FB7F89488814F
:10329000209582238883EC912E230BC0623061F449
:1032A0009FB7F8943881822F809583238883EC918F
:1032B0002E2B2C939FBF06C08FB7F894E8812E2B3E
:1032C00028838FBFDF91CF9108958E3008F08E5004
:1032D00087702091070190E4299F90011124822B8F
:1032E00080937C0080917A00806480937A00809142
:1032F0007A0086FDFCCF809178002091790090E0E3
:10330000922B08958230910538F0880F991F880F0D
:10331000991F05970197F1F708958F929F92AF92A9
:10332000BF92CF92DF92EF92FF926B017C010E94DD
:1033300050174B015C01C114D104E104F104F1F018
:103340000E945017DC01CB0188199909AA09BB0911
:10335000883E9340A105B10570F321E0C21AD1085F
:10336000E108F10888EE880E83E0981EA11CB11CCC
:10337000C114D104E104F10419F7DDCFFF90EF90FF
:10338000DF90CF90BF90AF909F908F9008952FB710
:10339000F894609112057091130580911405909135
:1033A00015052FBF08951F920F920FB60F9211248B
:1033B0002F933F938F939F93AF93BF938091120569
:1033C00090911305A0911405B09115053091110548
:1033D00023E0230F2D3720F40196A11DB11D05C058
:1033E00026E8230F0296A11DB11D2093110580939D
:1033F000120590931305A0931405B09315058091C1
:10340000160590911705A0911805B0911905019620
:10341000A11DB11D8093160590931705A093180563
:10342000B0931905BF91AF919F918F913F912F91CB
:103430000F900FBE0F901F901895CF92DF92EF92D2
:10344000FF920F931F93CF93DF937C016C0187E072
:10345000C80ED11CC0E0D0E0062F10E0B8010C2E41
:1034600002C0759567950A94E2F76170F601819143
:103470006F010E945C182196C430D10579F7C7010D
:10348000DF91CF911F910F91FF90EF90DF90CF9040
:103490000C941319CF92DF92EF92FF920F931F9328
:1034A000CF93DF93EC01F62E642F8C810E945C1881
:1034B0008D818F3F19F060E00E945C188F850F2D81
:1034C00010E084FF25C06E0187E0C80ED11CE12CFE
:1034D000F12CB8010E2C02C0759567950A94E2F79D
:1034E0006170F60181916F010E945C18FFEFEF1A85
:1034F000FF0A88E0E816F10461F7CE01DF91CF9171
:103500001F910F91FF90EF90DF90CF900C941319C3
:10351000B80184E0759567958A95E1F7CE010E9420
:103520001D1A6F2DCE01DF91CF911F910F91FF904A
:10353000EF90DF90CF900C941D1A41E00E944A1A40
:1035400081E090E0089540E00C944A1A1F920F9297
:103550000FB60F9211242F933F934F935F936F9366
:103560007F938F939F93AF93BF93CF93EF93FF93EB
:1035700096B1C0914C04C923809147048927C82380
:1035800090934704C0FF05C0E0911001F091110134
:103590000995C1FF05C0E0911901F0911A01099543
:1035A000C2FF05C0E0911B01F0911C010995C3FF0A
:1035B00005C0E0911D01F0911E010995C4FF05C0F1
:1035C000E0911F01F09120010995C5FF05C0E09130
:1035D0002101F09122010995FF91EF91CF91BF91C7
:1035E000AF919F918F917F916F915F914F913F919B
:1035F0002F910F900FBE0F901F9018951F920F9252
:103600000FB60F9211242F933F934F935F936F93B5
:103610007F938F939F93AF93BF93EF93FF9380918B
:10362000B900887F803609F49CC068F5883209F4B7
:103630005BC090F4803109F454C038F4882309F455
:10364000F6C0883009F44DC0F6C0883109F44CC08A
:10365000803209F45DC0EFC0803409F468C048F4DA
:10366000803309F455C0883309F0E5C080933E05E6
:10367000D8C0803509F44FC0883509F45DC088345E
:1036800009F0D9C0D6C0883909F4C7C0A8F4883772
:1036900009F467C038F4883609F463C0803709F448
:1036A00060C0C9C0883809F4B8C0803909F45FC067
:1036B000803809F0C0C05BC0803B09F486C038F494
:1036C000803A09F466C0883A09F47FC0B4C0803CEF
:1036D00009F4A7C0883C09F4A4C0883B09F48AC057
:1036E000AAC080911B0510C090913D0580913C05BA
:1036F000981770F5E0913D0581E08E0F80933D05B0
:10370000F0E0E45EFA4F80818093BB0085EC86C0D8
:1037100080933E058EC0E0913D0581E08E0F809341
:103720003D058091BB00F0E0E45EFA4F808390910C
:103730003D0580913C056EC0E0913D0581E08E0F16
:1037400080933D058091BB00F0E0E45EFA4F8083FA
:1037500080913F0581116DC081E080931A0584EA54
:1037600061C083E08093400510921005CFCF809117
:103770001005803208F051C0E091100581E08E0FF5
:10378000809310058091BB00F0E0E051FB4F8083F7
:10379000BDCF85EC8093BC00109240058091100550
:1037A000803230F4E0911005F0E0E051FB4F1082E0
:1037B0006091100570E0E091EE04F091EF0480EF6D
:1037C00094E009951092100536C084E0809340057E
:1037D0001092ED041092EC04E091EA04F091EB04F5
:1037E00009958091EC04811105C081E08093EC047F
:1037F0001092CA04E091ED0481E08E0F8093ED04F5
:10380000F0E0E653FB4F80818093BB009091ED0484
:103810008091EC04981708F479CF85E88093BC0078
:103820000AC085EC8093BC001092400504C0109241
:103830003E050E947617FF91EF91BF91AF919F9146
:103840008F917F916F915F914F913F912F910F9049
:103850000FBE0F901F901895AF92BF92CF92DF923C
:10386000FF920F931F93CF93DF9360E08FE00E944E
:10387000291960E080E10E9429191092C90493EC93
:10388000C92ED12CD091C904DF5FD093C90400E0C8
:1038900010E0C0E0AD2EB12C61E082E00E945C1827
:1038A000F6013197F1F760E082E00E945C18C501F3
:1038B0000E9482198FE00E943318892B19F004E6C8
:1038C00010E0C1E00F5F1F4F043611052CF3CC232D
:1038D00011F0DF3FB9F61092C80483ECC82ED12C4A
:1038E000C091C804CF5FC093C80400E010E0F12C81
:1038F000AC2EB12C61E082E00E945C18F601319799
:10390000F1F760E082E00E945C18C5010E94821914
:1039100080E10E943318892B21F004E610E0FF2497
:10392000F3940F5F1F4F0436110524F3FF2019F0A5
:10393000CF3FB1F608C0DF3F31F0CF3F21F0D130AB
:1039400011F0C13061F4109218011092C4056EEDAF
:1039500073E080E00E944D016CEE73E03CC080910A
:10396000C4058823B1F169EF73E080E00E944D0146
:103970006AE074E083E594E00E94212C8091C90400
:103980004AE064E674E090E00E94F42A64E674E0A1
:1039900083E594E00E940D2C6FE074E083E594E0F1
:1039A0000E940D2C8091C8044AE064E674E090E027
:1039B0000E94F42A64E674E083E594E00E940D2CF2
:1039C00066E174E083E594E00E940D2C63E574E009
:1039D00002C060E873E081E00E944D0160ED77E095
:1039E00080E090E00E948D190E94F0048091C4054F
:1039F000811111C062E08FE00E94291962E080E12C
:103A0000DF91CF911F910F91FF90DF90CF90BF90EA
:103A1000AF900C942919DF91CF911F910F91FF90D6
:103A2000DF90CF90BF90AF900895EF92FF920F93E9
:103A30001F93CF93DF93EC01623018F08F8588607D
:103A40008F876B8B1C8A80E48D8B80E18E8B80E569
:103A50008F8B61E08C810E9429198D818F3F19F035
:103A600061E00E94291961E08E810E9429197E017E
:103A700087E0E80EF11C00E010E08F8584FD03C0B4
:103A800084E090E002C088E090E0081719074CF449
:103A900061E0F70181917F010E9429190F5F1F4F9B
:103AA000ECCF8BE39DE00197F1F760E08C810E9401
:103AB0005C1860E08E810E945C188D818F3F19F048
:103AC00060E00E945C186F8564FD1DC063E0CE015C
:103AD0000E941D1A0BE416E4C8010197F1F763E098
:103AE000CE010E941D1AC8010197F1F763E0CE01D3
:103AF0000E941D1A83E592E00197F1F762E0CE0182
:103B00000E941D1A16C06062CE010E94A31A8BE4A7
:103B100096E40197F1F76F856062CE010E94A31AC7
:103B200083E592E00197F1F76F856062CE010E9414
:103B3000A31A6F856062CE010E94A31A84E0888B6D
:103B40006CE0CE010E94A31A61E0CE010E94A31A8C
:103B50008BE39FE10197F1F782E0898B66E0CE016C
:103B6000DF91CF911F910F91FF90EF900C94A31ACA
:103B7000EF92FF920F931F93CF93DF931F92CDB7D6
:103B8000DEB700E915E0E12CF12CF80161918F011D
:103B9000C70169830E945A2B6981681719F0C70110
:103BA0000E94622BFFEFEF1AFF0A86E3E816F1048A
:103BB00061F780E995E00F90DF91CF911F910F9110
:103BC000FF90EF9008958F929F92AF92BF92CF9205
:103BD000DF92EF92FF92CF9320912301253021F0C5
:103BE0002F3F09F0F0C104C0E2E1F1E0C49172C0DE
:103BF00025E020932301E2E1F1E0C491CF3F09F4F5
:103C0000E2C1C13009F1C23009F441C0C11162C042
:103C100014BC15BC24B5226024BD25B5216025BD8A
:103C2000E3E0F1E0E491F0E0EE0FFF1FEC50FF4F16
:103C3000259134913093CB052093CA05E5EEF0E051
:103C4000E491E093C90548C0109280001092810071
:103C500020918100286020938100209181002160C3
:103C600020938100E3E0F1E0E491F0E0EE0FFF1F2C
:103C7000EC50FF4F259134913093C8052093C70530
:103C8000E5EEF0E0E491E093C605C1E025C01092B6
:103C9000B0001092B1002091B00022602093B000DB
:103CA0002091B10021602093B100E3E0F1E0E491C4
:103CB000F0E0EE0FFF1FEC50FF4F25913491309351
:103CC000670520936605E5EEF0E0E491E093650575
:103CD000C2E002C0C7FD77C14C0161E085E00E94EF
:103CE0002919A12CB12C8C2F8D7F09F0A9C060E07F
:103CF00072E18AE790E0A50194010E94702B6901AE
:103D00007A01BA01A90141505109610971094F3F76
:103D100051056105710509F008F445C060E472E4DD
:103D20008FE090E0A50194010E94702BBA01A901D7
:103D30004150510961097109C230E9F44F3F510501
:103D40006105710509F008F43CC160E970ED83E09C
:103D500090E0A50194010E94702BBA01A901415085
:103D60005109610971094F3F51056105710509F05C
:103D7000A8F583E05EC04F3F510561057105A9F0CC
:103D8000A0F068E478EE81E090E0A50194010E9443
:103D9000702BBA01A9014150510961097109CC2365
:103DA00009F4BEC006C181E001C082E0CC2389F0E5
:103DB00040C0D701C6012AE0B595A795979587958C
:103DC0002A95D1F7AC01BD01415051096109710932
:103DD00085E095B5987F892B85BD66C068E478EE4F
:103DE00081E090E0A50194010E94702BBA01A90125
:103DF00041505109610971094F3F51056105710534
:103E000009F008F48BC064E274EF80E090E0A50153
:103E100094010E94702BBA01A90141505109610916
:103E200071094F3F51056105710511F008F097C008
:103E300085E09091B100987F892B8093B1002EC0CE
:103E400060E072E18AE790E0A50194010E94702B86
:103E5000BA01A90141505109610971094115510582
:103E600081E06807710580F068E478EE81E090E019
:103E7000A50194010E94702BBA01A901415051097A
:103E80006109710993E001C091E0C13039F480917A
:103E90008100887F892B8093810018C0C130B1F0E8
:103EA000C23049F1C1118FC047BD8FEF9FEFDC01D8
:103EB0008093D0059093D105A093D205B093D305FC
:103EC00080916E00826080936E007DC05093890067
:103ED000409388008FEF9FEFDC018093CC05909397
:103EE000CD05A093CE05B093CF0580916F00826081
:103EF00080936F0068C04093B3008FEF9FEFDC01A9
:103F00008093680590936905A0936A05B0936B054B
:103F10008091700082608093700055C084E089CFEA
:103F20004F3F510561057105C1F0B8F062E17AE7D4
:103F300080E090E0A50194010E94702BBA01A901D4
:103F400041505109610971094F3F510561057105E2
:103F500011F008F02ECF84E03CCF83E03ACF62E14D
:103F60007AE780E090E0A50194010E94702BBA01ED
:103F7000A90141505109610971094F3F510561057E
:103F80007105A9F0A0F0D701C6013AE0B595A79553
:103F9000979587953A95D1F7AC01BD0141505109EC
:103FA00061097109CC2309F413CF87E042CF86E081
:103FB000FDCE4F3F51056105710509F080F684E0A3
:103FC000F5CE82E036CFCF91FF90EF90DF90CF908B
:103FD000BF90AF909F908F9008952091640590912D
:103FE0006305213208F04AC0809140058111FCCF61
:103FF00032E03093400531E030933F053FEF30939E
:104000003E0510923D0520933C05A3E4B5E04CE14C
:1040100055E0FA013E2F341B321718F43D913193CD
:10402000F9CF10921B0520911B05990F922B9093AD
:104030001B0590911A05913061F410921A05909128
:104040001B059093BB009091BC0093FDF8CF95ECBD
:1040500001C095EE9093BC00909140059230E1F341
:1040600090913E059F3F79F080913E05803241F06E
:1040700080913E05803331F084E005C081E003C0CB
:1040800082E001C083E01092420510926405109214
:1040900041050895EF92FF921F93CF93DF931F92F4
:1040A000CDB7DEB7162F91E09093410590E690933F
:1040B00063051092420510926405682F8CE695E026
:1040C00079830E94FE17E12E7981F72E19E01150B5
:1040D00041F0F70161917F018CE695E00E94FE17A7
:1040E000F6CF0F90DF91CF911F91FF90EF900C943E
:1040F000ED1FCF93DF93CDB7DEB728970FB6F894B7
:10410000DEBF0FBECDBF789484B5826084BD84B518
:10411000816084BD85B5826085BD85B5816085BDC2
:1041200080916E00816080936E001092810080917A
:104130008100826080938100809181008160809302
:104140008100809180008160809380008091B10027
:1041500084608093B1008091B00081608093B00052
:1041600080917A00846080937A0080917A008260E6
:1041700080937A0080917A00816080937A008091A8
:104180007A00806880937A001092C1008CEC809352
:1041900090056AEB71E083E594E00E94212C62E0D7
:1041A00088E795E00E94151D81E08093070162E099
:1041B00081E10E94291962E084E00E94291962E0ED
:1041C00087E00E94291987E00E943318892B51F05B
:1041D0001092120110929F058AE090E09093B90529
:1041E0008093B80561E087E00E94291960E087E0CC
:1041F0000E945C1861E086E00E94291960E086E078
:104200000E945C1861E085E00E94291960E085E069
:104210000E945C1861E082E00E94291960E082E05F
:104220000E945C1880E090E00E945A2B182F81E1D8
:104230000E943318892B09F4D9C590919005191360
:10424000D5C560E08EE00E94291986E19DE090933B
:1042500011018093100180914C04816080934C0483
:1042600086B18093470480916C00816080936C00DC
:104270008091680082608093680063E574E080E06C
:104280000E944D0168EE73E080E090E00E948D197D
:1042900080E9E82E85E0F82E00E010E0C8010E94D9
:1042A0005A2BF70181937F010F5F1F4F06331105D2
:1042B000A9F70E942C1C10924A04109249041092F3
:1042C0004205109264051092400511E010933F05DD
:1042D00010921A0561E082E10E945C1861E083E1BE
:1042E0000E945C188091B9008E7F8093B900809104
:1042F000B9008D7F8093B90088E48093B80085E48D
:104300008093BC0060E085E90E94D50560910801BA
:1043100083E00E94D50562E987EB0E94D505BE01C6
:104320006F5F7F4F88E0FB0111928A95E9F71A834E
:104330008FE08C8380E88D838AE10E944A2060E2CE
:1043400081EB0E94D505A0919105B091920524E6DC
:1043500030E00E94ED2BDC01CB0180549F48A84D3A
:10436000BB4C80930C0190930D01A0930E01B09370
:104370000F0110920B01109209014091A405509178
:10438000A5056091A6057091A70540937804509308
:10439000790460937A0470937B048091A8059091CE
:1043A000A905A091AA05B091AB05809374049093E0
:1043B0007504A0937604B09377042091AE05211183
:1043C0000BC040937E0450937F04609380047093ED
:1043D00081048091AC050AC080937E0490937F0491
:1043E000A0938004B09381048091AD0580938A04EA
:1043F00080918A04823040F08091A2059091A305BB
:1044000090934F0480934E040E946D160E94500EAC
:1044100080919105909192058732964089F468EEDB
:1044200073E080E090E00E948D1968EC71E081E01B
:104430000E944D0168EE73E080E090E00E948D19CB
:1044400043E06CE370E08091A2059091A3050E9487
:104450001C0141E064EB70E08091A2059091A305FE
:104460000E941C01B5E02B2E312C18E8C12E13E15F
:10447000D12E0AE0802E912CA12CB12CFF24F39494
:10448000ABE0EA2EE09198048E2F90E08830910501
:1044900008F09EC4FC01EC5CFF4F0C94E72B80916C
:1044A000C40581110E941A0D80919704811153C097
:1044B0000E94C71940909304509094046090950412
:1044C0007090960400918F041091900420919104B3
:1044D00030919204041515052605370510F4930153
:1044E0008201DC01CB01801B910BA20BB30B893E37
:1044F0009340A105B10508F08CC42DC080918D04B6
:10450000882309F434C50E94B9050E94120E9093C5
:104510007D0480937C0441E062E370E088E592E0F2
:104520000E941C0164E670E080E090E00E948D191A
:1045300084E00E943318892B09F455C680918E04BB
:10454000882309F455C68A3009F452C680918E0436
:10455000882309F450C60E94A3060E946F08809128
:104560009D05882371F180919704882329F010928A
:104570005204109251040AC084E10E9465199250BD
:10458000880F991F90935204809351048091510495
:10459000909152042091A3043091A404821B930BA8
:1045A00097FF03C0919581959109069754F00E9459
:1045B0006D1680915104909152049093A4048093BD
:1045C000A30480918B0481110E94A50180918D0428
:1045D000882309F4B1C0809197048111ADC00E9475
:1045E000C719409093045090940460909504709083
:1045F000960400918F0410919004209191043091C1
:104600009204041515052605370510F4930182015F
:10461000DC01CB01801B910BA20BB30B883E9340B6
:10462000A105B10508F4DAC30E94120E209117010A
:10463000AC01485853412223B9F02091A504309190
:10464000A6043093730420937204BA0157FF02C08A
:104650006F5F7F4F75956795261B370B30938304EB
:1046600020938204109217012091820430918304D8
:1046700057FF02C04F5F5F4F55954795420F531F3D
:104680005093A6044093A504853091053CF44D3326
:1046900066EF560784F02253310909C08D3E9742D8
:1046A00054F0443CF9E05F0734F42E5C3F4F309304
:1046B000830420938204509371044093700480918A
:1046C0006E0490916F044817590709F487C30E943C
:1046D000E4084AE064E674E08091A5049091A604A1
:1046E0000E94F42A6BEC72E083E594E00E94212C96
:1046F00064E674E083E594E00E940D2C66EB71E0C3
:1047000083E594E00E940D2C63E574E081E00E9453
:104710004D01809170049091710490936F04809387
:104720006E040E94120E90937D0480937C046EE1CF
:1047300070E080E090E050C30E94C719409093045D
:1047400050909404609095047090960400918F04AA
:104750001091900420919104309192040415150554
:104760002605370510F493018201AB01BC01401B03
:10477000510B620B730B8091B8059091B905A0E0C5
:10478000B0E084179507A607B70708F027C385E1AF
:104790000E946519DC0120EA36E841E050E00E9401
:1047A0009A2B26EF37E240E050E00E94702B809178
:1047B0009704882311F180918E048A300CF00EC387
:1047C00080917C0490917D04281B390B37FF03C036
:1047D0003195219531092B3231050CF4FFC28091BE
:1047E0008C048111FBC261E571E081E00E944D0102
:1047F0000E94500EF0921701F1C280918C04811139
:10480000EDC200917C0410917D04201B310B2D5EC4
:104810003F4F2732310508F077C040907804509020
:10482000790460907A0470907B048091A405909143
:10483000A505A091A605B091A705481659066A06D8
:104840007B0669F0A3019201281B390B4A0B5B0B15
:10485000DA01C901853F9140A105B105F0F48091CD
:10486000740490917504A0917604B09177044091FE
:10487000A8055091A9056091AA057091AB05841710
:104880009507A607B707B1F1841B950BA60BB70BCD
:10489000853F9140A105B10568F10E94C71920919B
:1048A000A7043091A8044091A9045091AA04DC0106
:1048B000CB01821B930BA40BB50B81339547A1054C
:1048C000B10510F14092A4055092A5056092A6058D
:1048D0007092A7058091740490917504A09176045C
:1048E000B09177048093A8059093A905A093AA0599
:1048F000B093AB050E94C7196093A7047093A804F6
:104900008093A9049093AA040E94120E9C01009720
:1049100009F087C080917E0490917F04A09180046B
:10492000B09181044091BB055091BC056091BD05DB
:104930007091BE0584179507A607B70709F418C13B
:10494000481759076A077B0708F03FC02091A00568
:104950003091A1058091130190911401A09115014E
:10496000B09116012931310528F4885E9340A109E0
:10497000B10904C080519742A109B1098093130184
:1049800090931401A0931501B09316018091130127
:1049900090911401A0911501B091160180937E04AD
:1049A00090937F04A0938004B093810480918E043F
:1049B0008A302CF460ED72E081E00E944D016CE2DF
:1049C00071E080E090E00E948D198091BB0590918C
:1049D000BC05A091BD05B091BE0540917E045091EB
:1049E0007F046091800470918104481759076A0719
:1049F0007B0780F480937E0490937F04A0938004CF
:104A0000B09381048093130190931401A093150136
:104A1000B09316010E94E40810927D0410927C0469
:104A200005C18031974209F0A3C080917E04909126
:104A30007F04A0918004B09181044091BF05509102
:104A4000C0056091C1057091C20584179507A6073E
:104A5000B70709F48DC084179507A607B70708F0B4
:104A60004BC02091A0053091A10580911301909138
:104A70001401A0911501B09116012931310528F4D6
:104A800088519C4FAF4FBF4F04C0805F984DAF4FD0
:104A9000BF4F8093130190931401A0931501B0931D
:104AA0001601A0E1B7E20E94C42BA50194010E9467
:104AB000A22B8091130190911401A0911501B09146
:104AC0001601820F931FA41FB51F80937E0490933D
:104AD0007F04A0938004B093810480918E048A3077
:104AE0002CF468ED72E081E00E944D016CE271E00F
:104AF00080E090E00E948D194090BF055090C00565
:104B00006090C1057090C20580917E0490917F04F1
:104B1000A0918004B0918104481659066A067B066C
:104B2000F0F42091A0053091A105A8EEB3E00E9419
:104B3000C42BA3019201261B370B480B590B209362
:104B400013013093140140931501509316014092C4
:104B50007E0450927F0460928004709281040E94CF
:104B6000E40840E157E250937D0440937C045EC02A
:104B7000C901801B910B97FF03C091958195910905
:104B800005970CF453C0020F131F17FF02C00F5FED
:104B90001F4FD801B595A795B0937D04A0937C04D1
:104BA0002091A0053091A1050E94ED2BA501940153
:104BB0000E94A22B8091130190911401A0911501E4
:104BC000B0911601BA01A901480F591F6A1F7B1F36
:104BD0008091BB059091BC05A091BD05B091BE052B
:104BE000481759076A077B0788F04090BF05509027
:104BF000C0056090C1057090C205DB01CA01441672
:104C000055066606770610F4D301C20180937E0430
:104C100090937F04A0938004B09381040E94E408E1
:104C20006AE070E080E090E00E948D192091AE056E
:104C300080917E0490917F04A0918004B0918104C2
:104C4000211109C08093780490937904A0937A0489
:104C5000B0937B04C3C08093740490937504A093B5
:104C60007604B0937704BAC00E947E09B1C00E9456
:104C70009614AEC00E94E6118091C40581110E9475
:104C80001A0D0E94A3060E946F0880918B0488234E
:104C900009F4A4C00E94A501A1C00E94260F98C0DB
:104CA0000E94760E95C080918A0481FF35C00E94D3
:104CB000C7194090860450908704609088047090D3
:104CC0008904DC01CB0184199509A609B709893E3D
:104CD0009340A105B10500F18091A2059091A30533
:104CE0000E94E31D0E94C719DC01CB0184199509BC
:104CF000A609B7098F379440A105B10568F085E092
:104D00000E948C180E94C7196093860470938704D0
:104D100080938804909389040E94120E8C0184E091
:104D20000E943318892B09F03BC3809197048111AD
:104D300037C380918C04811133C38091170188237C
:104D400091F0109217018FE097E29093AC0480935A
:104D5000AB04C601801B910BB1010E94D32B709351
:104D60008304609382042091820430918304C801FB
:104D700088589341B1010E94D32B620F731F709327
:104D80008504609384040A3011050CF06DC3693109
:104D90009CEF79070CF046C38091AB049091AC0472
:104DA0006817790721F00E94E4080E94F0048091BE
:104DB0008A0481FF88C369EE72E081E00E944D01A0
:104DC00080918404909185049093AC048093AB040B
:104DD00064E670E080E090E00E948D1920E030E011
:104DE000232B09F44FCB0E94000048CB6AEF72E0FE
:104DF00080E00E944D016BE073E081E00E944D0174
:104E00000E94B81D68EE73E080E090E00E948D196A
:104E100018CA81E10E943318892B09F47AC00E94D4
:104E2000C71900919F041091A0042091A104309112
:104E3000A204DC01CB01801B910BA20BB30B80936E
:104E40009B0490939C04A0939D04B0939E04209196
:104E50009A04222309F441C020918E042A30ECF5F3
:104E600089559240A109B1098F359940A105B10535
:104E7000A0F569ED71E081E00E944D0180917E0412
:104E800090917F04A0918004B09181048093740478
:104E900090937504A0937604B0937704809378047C
:104EA00090937904A0937A04B0937B0480918A0450
:104EB0008093AD058093AC050E94F00442E062E36C
:104EC00070E088E592E00E941C016CEB72E080E0EB
:104ED00090E00E948D1910928E0480919B04909115
:104EE0009C04A0919D04B0919E048D3D9540A10528
:104EF000B10564F080918E04809399048A3024F087
:104F00008AE080938E0402C010928E0410929A045C
:104F10008DC06AE070E080E090E00E948D1981E130
:104F20000E943318892B09F081C080918C0488235A
:104F300009F46FC184E00E943318892B09F469C118
:104F400041E062E370E088E592E00E941C0164EBBE
:104F500073E081E00E944D0164EF71E080E090E039
:104F60000E948D1910928C040E94500E6EC1809187
:104F70009A0481119DC1F0929A040E94C71960930E
:104F80009F047093A0048093A1049093A20441E035
:104F900062E370E080EB94E00E941C01109299049F
:104FA00080918E048F5F81310CF054C180938E0408
:104FB00080918E048750833010F4F0928E04E0913B
:104FC0008E048E2FEE0F990BAA0BBB0BFC013197B1
:104FD000E031F10508F441C10E94C71940909F04D7
:104FE0005090A0046090A1047090A204DC01CB0159
:104FF00084199509A609B709893B9B40A105B1050C
:1050000008F482C180918E048A300CF07DC143E0A7
:1050100066E970E080EB94E00E941C0160E671E0BC
:1050200081E00E944D018AE080938E0410919904E2
:10503000112349F01A3039F041E062E370E088E56D
:1050400092E00E941C01F0925004812F90E0FC013C
:105050003197E031F10508F06BCAE45CFF4F0C9426
:10506000E72B0E94B50064CA0E94B90561CA80910D
:10507000AF058F258093AF0580918D04882361F063
:1050800010928D0410926F0410926E0410927104AD
:10509000109270040E94500E0E94F00449CA909130
:1050A0009F0580918A04911103C08F5F837001C0B6
:1050B0008F2580938A0480918A0481FF09C08091A2
:1050C000A2059091A30590934F0480934E0404C0D1
:1050D00010924F0410924E040E946D1629CA84E06B
:1050E000809398040E94C7192091B6053091B705A6
:1050F000DC01CB01820F931FA11DB11D809386049B
:1051000090938704A0938804B09389042091B005FC
:105110003091B105A8EEB3E00E94C42B60937E04E9
:1051200070937F04809380049093810464E872E01C
:1051300056C0F6E0F09398040E94C7192091B60576
:105140003091B705DC01CB01820F931FA11DB11D6A
:105150008093860490938704A0938804B093890475
:1051600062E972E03CC00E94260FE2C90E94E6118B
:10517000DFC90E947E09DCC98091C5058F25809317
:10518000C505882319F061EA72E002C06AEA72E09C
:1051900081E00E944D010E946D1612C00E9496147B
:1051A000C7C980919D058F2580939D05882319F09F
:1051B00062EB72E002C06EEB72E081E00E944D0192
:1051C0006CEB72E080E090E00E948D1942E062E3B7
:1051D00070E088E592E00E941C0160E671E081E0E9
:1051E0000E944D01A5C9809197048111A7C9B7C03C
:1051F0000E94B81DABC980918D048111ACC980910A
:105200008C048111A8C964EB73E081E00E944D0118
:10521000A2C984E00E943318892B09F06FC941E0CC
:1052200062E370E080EB94E00E941C01F0928C0439
:105230000E94F00461E571E081E00E944D0164EF9D
:1052400071E080E090E00E948D1910928E0410921F
:105250009A046EC9E0928E04ABCEE45BFF4F0C94CF
:10526000E72B63EE71E002C06DEE71E081E00E9419
:105270004D01B2CE64EF71E0F9CF61E072E0F6CF9C
:105280006DE072E0F3CF6DE172E0F0CF6DE272E0BD
:10529000EDCF6DE372E0EACF6BE472E0E7CF6BE550
:1052A00072E0E4CF68E672E0E1CF69E772E0DECF5A
:1052B0000E94C71940909F045090A0046090A104E0
:1052C0007090A204DC01CB0184199509A609B709E5
:1052D00089359240A105B10508F47ECE0E94C71918
:1052E000DC01CB0184199509A609B70980329340E6
:1052F000A105B10508F070CE80918E048A300CF0C3
:105300006BCE67E173E0B2CF0E94C719DC01CB011D
:1053100084199509A609B7098D3D9540A105B105E8
:1053200008F484CE80918E048B300CF47FCE43E061
:1053300066E970E080EB94E00E941C014FEF40931F
:105340008E0410929A0462E273E081E00E944D01A3
:105350006CEB72E080E090E00E948D1967CE57E020
:10536000509398040E94C719DC01CB01885E9340DA
:10537000A109B1098093860490938704A0938804BF
:10538000B093890480918D04882309F4D7C80E94C2
:10539000B9050E94120E90937D0480937C04CEC8C0
:1053A000F0921701109286041092870410928804DC
:1053B0001092890485E00E948C18109298048091C4
:1053C000840490918504092E000CAA0BBB0B40911C
:1053D0007E0450917F046091800470918104840F59
:1053E000951FA61FB71F80937E0490937F04A09300
:1053F0008004B093810410928504109284040E946A
:10540000500E0E94120E90937D0480937C04809134
:105410008E048A3009F0DCCC60E671E081E00E9405
:105420004D01D6CC40907E0450907F046090800463
:1054300070908104CB01072E000CAA0BBB0B840DCE
:10544000951DA61DB71D4090BB055090BC056090F2
:10545000BD057090BE05481659066A067B0608F021
:105460009BCC2A5031092AC00D3E17420CF494CC33
:10547000683EF3E07F070CF08FCC40907E045090A4
:105480007F046090800470908104CB01072E000C93
:10549000AA0BBB0B840D951DA61DB71D4090BF0523
:1054A0005090C0056090C1057090C20584159505A7
:1054B000A605B70508F070CC265F3F4F30938304F4
:1054C0002093820469CC60EF72E077CCECE6F5E0E3
:1054D0001382128288EE93E0A0E0B0E0848395838B
:1054E000A683B78388E291E091838083E0E9F5E0C9
:1054F00087E296E09283818380E596E1A7EBB0E0B6
:1055000083839483A583B68388E697EF9087878308
:105510008EE79FEF928781878AEE97EF9487838744
:10552000158680E1868781E0878722E330E0318B32
:10553000208B20E233E0338B228B48E058EB6CE683
:1055400070E0448B558B668B778B408F518F628FC9
:10555000738F148E158E168E178E2CEB3BE131A3B4
:1055600020A32EEE3BE133A322A328EE33E035A3A4
:1055700024A324EF31E037A326A32EE531E031A7A1
:1055800020A712A640EC5FEC6AE670E043A754A7A0
:1055900065A776A740EA53E66FE670E047A750ABF1
:1055A00061AB72AB13AA14AA85ABE8E7F5E01382EE
:1055B00012828AE391E09183808388E084838FEF75
:1055C000858389E086838AE087838BE080878CE00F
:1055D00081878DE082871386148615861686178646
:1055E00061E0CF010C94151DBB274A3031F499239B
:1055F00022F4BDE2909581959F4F0C94312BBB27EF
:105600002A3051F4992342F4BDE29095809570952B
:1056100061957F4F8F4F9F4F0C940F2BBB27FA0143
:10562000A62F6217710581059105330B30FB66F0DB
:10563000AA27660F771F881F991FAA1FA21710F0AD
:10564000A21B63953850A9F7A05DAA3308F0A95DA5
:10565000A19336F7B111B1931082CA010C944A2B71
:10566000BB27FB015527AA27880F991FAA1FA4173C
:1056700010F0A41B83955051B9F7A05DAA3308F030
:10568000A95DA193009779F7B111B1931192CB0164
:105690000C944A2BDC01FC01672F71917723E1F711
:1056A000329704C07C916D9370836291AE17BF07EF
:1056B000C8F30895F999FECF92BD81BDF89A992754
:1056C00080B50895262FF999FECF1FBA92BD81BDEE
:1056D00020BD0FB6F894FA9AF99A0FBE0196089574
:1056E000052E97FB1EF400940E94872B57FD07D0D0
:1056F0000E94A22B07FC03D04EF40C94872B5095EC
:105700004095309521953F4F4F4F5F4F08959095AD
:105710008095709561957F4F8F4F9F4F08950E94A0
:10572000C42BA59F900DB49F900DA49F800D911D3B
:1057300011240895B7FF0C948F2B0E948F2B821B8E
:10574000930B0895A1E21A2EAA1BBB1BFD010DC0ED
:10575000AA1FBB1FEE1FFF1FA217B307E407F50721
:1057600020F0A21BB30BE40BF50B661F771F881FFD
:10577000991F1A9469F760957095809590959B0193
:10578000AC01BD01CF010895A29FB001B39FC0013C
:10579000A39F700D811D1124911DB29F700D811D5D
:1057A0001124911D089597FB072E16F4009407D03D
:1057B00077FD09D00E94F42B07FC05D03EF49095AC
:1057C00081959F4F0895709561957F4F0895EE0FD5
:1057D000FF1F0590F491E02D09940E94C42BB7FFA0
:1057E0000895821B930B0895AA1BBB1B51E107C0B0
:1057F000AA1FBB1FA617B70710F0A61BB70B881F61
:10580000991F5A95A9F780959095BC01CD010895EF
:1058100081E090E0F8940C94382CFB01DC010D90B1
:105820000020E9F7119701900D920020E1F708950B
:10583000FB01DC018D91019080190110D9F3990BC6
:105840000895FB01DC0101900D920020E1F708951D
:10585000FB01DC010D900020E9F711974150504009
:1058600028F0019000200D92C9F708951C92089528
:04587000F894FFCFDA
:105874000F10000101010101FF010101C070273473
:1058840075170160566C000101751775177517754A
:10589400177517FF00000000FE17CE172E18A81763
:1058A400C617B717A917000000009D1AFC162E187A
:1058B4002D1843572D737065656420002057504D93
:1058C400006469616C206973206C6F636B656400AC
:1058D4002D2D2D2053455454494E4753202D2D2D05
:1058E40000412000422000204C53420020555342E6
:1058F400002043574C0020435755002054580020A3
:1059040053500056464F2066696E652074756E6963
:105914006E670056464F2063616C20002070706DE6
:105924000042464F200020487A0052616475696E37
:105934006F2076322E30340056464F20756E6361E8
:105944006C696272617465640056464F20413D4241
:10595400202100537761702056464F7300524954FA
:10596400204F4E0053504C4954204F4E2F4F464623
:1059740000537769746368206D6F646500537461C4
:1059840072742066726571207363616E004D6F6E70
:1059940069746F722056464F20412F42005365743C
:1059A400207363616E20706172616D73005365745E
:1059B40020435720706172616D730056464F2F4229
:1059C400464F2063616C6962722E0056464F204830
:1059D4006967682F4C6F77005365742074756E691E
:1059E4006E672072616E676500504254204F4E2FDF
:1059F4004F46460066726571207363616E6E696E10
:105A04006700412F42206D6F6E69746F72696E6713
:105A14000056464F20484947480056464F204C4FB1
:105A2400570050425420656E61626C6564005042B8
:105A3400542064697361626C6564005249542000A7
:105A44003C3C3C3C3C3C3C002020202020202020AE
:105A5400203E3E3E3E3E3E3E0053504F54202B20BF
:105A640046494E452054554E45006C6F6164696E3D
:105A740067207374616E6461726400736574746921
:105A84006E67732E2E2E0052657365742056464F32
:105A94007300202D2D2D204E4F524D414C202D2D85
:105AA4002D006C6F7765722000206B487A0075704A
:105AB4007065722000737465702000206D73004B54
:105AC40065793A200073747261696768740072655D
:105AD400762E20706164646C65007265762E206297
